{"contracts/Lock.sol":{"PayableTest":{"abi":[{"stateMutability":"payable","type":"fallback"},{"inputs":[],"name":"getBalance","outputs":[{"internalType":"uint256","name":"","type":"uint256"}],"stateMutability":"view","type":"function"},{"inputs":[{"internalType":"address","name":"_a","type":"address"}],"name":"getRanddomBalance","outputs":[{"internalType":"uint256","name":"","type":"uint256"}],"stateMutability":"view","type":"function"},{"inputs":[],"name":"pay","outputs":[],"stateMutability":"payable","type":"function"},{"inputs":[],"name":"transfer","outputs":[],"stateMutability":"payable","type":"function"},{"inputs":[{"internalType":"address payable","name":"_account","type":"address"}],"name":"transfer2","outputs":[],"stateMutability":"payable","type":"function"},{"inputs":[],"name":"transfer3","outputs":[],"stateMutability":"payable","type":"function"},{"stateMutability":"payable","type":"receive"}],"evm":{"bytecode":{"linkReferences":{},"object":"608060405234801561001057600080fd5b506101e4806100206000396000f3fe6080604052600436106100565760003560e01c806312065fe01461005f5780631b9265b81461005d57806321adf6a41461008057806352d6ec76146100885780638a4068dd1461009b578063f1cac37d146100a357005b3661005d57005b005b34801561006b57600080fd5b50475b60405190815260200160405180910390f35b61005d6100cb565b61005d61009636600461018a565b6100fa565b61005d610133565b3480156100af57600080fd5b5061006e6100be36600461018a565b6001600160a01b03163190565b60405130903480156108fc02916000818181858888f193505050501580156100f7573d6000803e3d6000fd5b50565b6040516001600160a01b038216903480156108fc02916000818181858888f1935050505015801561012f573d6000803e3d6000fd5b5050565b60405173ab8483f64d9c6d1ecf9b849ae677dd3315835cb29081903480156108fc02916000818181858888f1935050505015801561012f573d6000803e3d6000fd5b6001600160a01b03811681146100f757600080fd5b60006020828403121561019c57600080fd5b81356101a781610175565b939250505056fea264697066735822122006b85bd5b1db2134e10ca7439fb5a0ce04c83a2833fe236e0028095fa89b82b964736f6c63430008090033","opcodes":"PUSH1 0x80 PUSH1 0x40 MSTORE CALLVALUE DUP1 ISZERO PUSH2 0x10 JUMPI PUSH1 0x0 DUP1 REVERT JUMPDEST POP PUSH2 0x1E4 DUP1 PUSH2 0x20 PUSH1 0x0 CODECOPY PUSH1 0x0 RETURN INVALID PUSH1 0x80 PUSH1 0x40 MSTORE PUSH1 0x4 CALLDATASIZE LT PUSH2 0x56 JUMPI PUSH1 0x0 CALLDATALOAD PUSH1 0xE0 SHR DUP1 PUSH4 0x12065FE0 EQ PUSH2 0x5F JUMPI DUP1 PUSH4 0x1B9265B8 EQ PUSH2 0x5D JUMPI DUP1 PUSH4 0x21ADF6A4 EQ PUSH2 0x80 JUMPI DUP1 PUSH4 0x52D6EC76 EQ PUSH2 0x88 JUMPI DUP1 PUSH4 0x8A4068DD EQ PUSH2 0x9B JUMPI DUP1 PUSH4 0xF1CAC37D EQ PUSH2 0xA3 JUMPI STOP JUMPDEST CALLDATASIZE PUSH2 0x5D JUMPI STOP JUMPDEST STOP JUMPDEST CALLVALUE DUP1 ISZERO PUSH2 0x6B JUMPI PUSH1 0x0 DUP1 REVERT JUMPDEST POP SELFBALANCE JUMPDEST PUSH1 0x40 MLOAD SWAP1 DUP2 MSTORE PUSH1 0x20 ADD PUSH1 0x40 MLOAD DUP1 SWAP2 SUB SWAP1 RETURN JUMPDEST PUSH2 0x5D PUSH2 0xCB JUMP JUMPDEST PUSH2 0x5D PUSH2 0x96 CALLDATASIZE PUSH1 0x4 PUSH2 0x18A JUMP JUMPDEST PUSH2 0xFA JUMP JUMPDEST PUSH2 0x5D PUSH2 0x133 JUMP JUMPDEST CALLVALUE DUP1 ISZERO PUSH2 0xAF JUMPI PUSH1 0x0 DUP1 REVERT JUMPDEST POP PUSH2 0x6E PUSH2 0xBE CALLDATASIZE PUSH1 0x4 PUSH2 0x18A JUMP JUMPDEST PUSH1 0x1 PUSH1 0x1 PUSH1 0xA0 SHL SUB AND BALANCE SWAP1 JUMP JUMPDEST PUSH1 0x40 MLOAD ADDRESS SWAP1 CALLVALUE DUP1 ISZERO PUSH2 0x8FC MUL SWAP2 PUSH1 0x0 DUP2 DUP2 DUP2 DUP6 DUP9 DUP9 CALL SWAP4 POP POP POP POP ISZERO DUP1 ISZERO PUSH2 0xF7 JUMPI RETURNDATASIZE PUSH1 0x0 DUP1 RETURNDATACOPY RETURNDATASIZE PUSH1 0x0 REVERT JUMPDEST POP JUMP JUMPDEST PUSH1 0x40 MLOAD PUSH1 0x1 PUSH1 0x1 PUSH1 0xA0 SHL SUB DUP3 AND SWAP1 CALLVALUE DUP1 ISZERO PUSH2 0x8FC MUL SWAP2 PUSH1 0x0 DUP2 DUP2 DUP2 DUP6 DUP9 DUP9 CALL SWAP4 POP POP POP POP ISZERO DUP1 ISZERO PUSH2 0x12F JUMPI RETURNDATASIZE PUSH1 0x0 DUP1 RETURNDATACOPY RETURNDATASIZE PUSH1 0x0 REVERT JUMPDEST POP POP JUMP JUMPDEST PUSH1 0x40 MLOAD PUSH20 0xAB8483F64D9C6D1ECF9B849AE677DD3315835CB2 SWAP1 DUP2 SWAP1 CALLVALUE DUP1 ISZERO PUSH2 0x8FC MUL SWAP2 PUSH1 0x0 DUP2 DUP2 DUP2 DUP6 DUP9 DUP9 CALL SWAP4 POP POP POP POP ISZERO DUP1 ISZERO PUSH2 0x12F JUMPI RETURNDATASIZE PUSH1 0x0 DUP1 RETURNDATACOPY RETURNDATASIZE PUSH1 0x0 REVERT JUMPDEST PUSH1 0x1 PUSH1 0x1 PUSH1 0xA0 SHL SUB DUP2 AND DUP2 EQ PUSH2 0xF7 JUMPI PUSH1 0x0 DUP1 REVERT JUMPDEST PUSH1 0x0 PUSH1 0x20 DUP3 DUP5 SUB SLT ISZERO PUSH2 0x19C JUMPI PUSH1 0x0 DUP1 REVERT JUMPDEST DUP2 CALLDATALOAD PUSH2 0x1A7 DUP2 PUSH2 0x175 JUMP JUMPDEST SWAP4 SWAP3 POP POP POP JUMP INVALID LOG2 PUSH5 0x6970667358 0x22 SLT KECCAK256 MOD 0xB8 JUMPDEST 0xD5 0xB1 0xDB 0x21 CALLVALUE 0xE1 0xC 0xA7 NUMBER SWAP16 0xB5 LOG0 0xCE DIV 0xC8 GASPRICE 0x28 CALLER INVALID 0x23 PUSH15 0x28095FA89B82B964736F6C634300 ADDMOD MULMOD STOP CALLER "},"methodIdentifiers":{"getBalance()":"12065fe0","getRanddomBalance(address)":"f1cac37d","pay()":"1b9265b8","transfer()":"8a4068dd","transfer2(address)":"52d6ec76","transfer3()":"21adf6a4"}}}}}