{
  "_format": "hh-sol-artifact-1",
  "contractName": "Lock",
  "sourceName": "contracts/Lock.sol",
  "abi": [
    {
      "inputs": [
        {
          "internalType": "uint256",
          "name": "_unlockTime",
          "type": "uint256"
        }
      ],
      "stateMutability": "payable",
      "type": "constructor"
    },
    {
      "anonymous": false,
      "inputs": [
        {
          "indexed": false,
          "internalType": "uint256",
          "name": "amount",
          "type": "uint256"
        },
        {
          "indexed": false,
          "internalType": "uint256",
          "name": "when",
          "type": "uint256"
        }
      ],
      "name": "Withdrawal",
      "type": "event"
    },
    {
      "inputs": [],
      "name": "owner",
      "outputs": [
        {
          "internalType": "address payable",
          "name": "",
          "type": "address"
        }
      ],
      "stateMutability": "view",
      "type": "function"
    },
    {
      "inputs": [],
      "name": "soul",
      "outputs": [
        {
          "internalType": "string",
          "name": "",
          "type": "string"
        }
      ],
      "stateMutability": "view",
      "type": "function"
    },
    {
      "inputs": [],
      "name": "unlockTime",
      "outputs": [
        {
          "internalType": "uint256",
          "name": "",
          "type": "uint256"
        }
      ],
      "stateMutability": "view",
      "type": "function"
    },
    {
      "inputs": [],
      "name": "withdraw",
      "outputs": [],
      "stateMutability": "nonpayable",
      "type": "function"
    }
  ],
  "bytecode": "0x60806040526040516103353803806103358339810160408190526100229161009b565b8042106100815760405162461bcd60e51b815260206004820152602360248201527f556e6c6f636b2074696d652073686f756c6420626520696e207468652066757460448201526275726560e81b606482015260840160405180910390fd5b600055600180546001600160a01b031916331790556100b4565b6000602082840312156100ad57600080fd5b5051919050565b610272806100c36000396000f3fe608060405234801561001057600080fd5b506004361061004c5760003560e01c8063251c1aa3146100515780633ccfd60b1461006d578063815b7a8c146100775780638da5cb5b146100a7575b600080fd5b61005a60005481565b6040519081526020015b60405180910390f35b6100756100d2565b005b61009a604051806040016040528060048152602001631cdbdd5b60e21b81525081565b60405161006491906101e7565b6001546100ba906001600160a01b031681565b6040516001600160a01b039091168152602001610064565b6000544210156101225760405162461bcd60e51b8152602060048201526016602482015275165bdd4818d85b89dd081dda5d1a191c985dc81e595d60521b60448201526064015b60405180910390fd5b6001546001600160a01b031633146101735760405162461bcd60e51b81526020600482015260146024820152732cb7ba9030b932b713ba103a34329037bbb732b960611b6044820152606401610119565b604080514781524260208201527fbf2ed60bd5b5965d685680c01195c9514e4382e28e3a5a2d2d5244bf59411b93910160405180910390a16001546040516001600160a01b03909116904780156108fc02916000818181858888f193505050501580156101e4573d6000803e3d6000fd5b50565b600060208083528351808285015260005b81811015610214578581018301518582016040015282016101f8565b81811115610226576000604083870101525b50601f01601f191692909201604001939250505056fea26469706673582212204ae82abf56916aea5e53e5f2589ba073126d029e92cc898f6bdf556312bf301064736f6c63430008090033",
  "linkReferences": {},
  "deployedLinkReferences": {}
}